{
  "abi": [
    {
      "inputs": [
        {
          "internalType": "address",
          "name": "_tokenAddress",
          "type": "address"
        },
        {
          "internalType": "string",
          "name": "_tokenName",
          "type": "string"
        },
        {
          "internalType": "string",
          "name": "_tokenSymbol",
          "type": "string"
        }
      ],
      "stateMutability": "nonpayable",
      "type": "constructor"
    },
    {
      "inputs": [],
      "name": "NFTApp__LowTokenUser",
      "type": "error"
    },
    {
      "inputs": [],
      "name": "NFTApp__TokenTransferToNFTContractFailed",
      "type": "error"
    },
    {
      "inputs": [],
      "name": "NFTApp__TokenTransferToUserFailed",
      "type": "error"
    },
    {
      "anonymous": false,
      "inputs": [
        {
          "indexed": true,
          "internalType": "address",
          "name": "owner",
          "type": "address"
        },
        {
          "indexed": true,
          "internalType": "address",
          "name": "approved",
          "type": "address"
        },
        {
          "indexed": true,
          "internalType": "uint256",
          "name": "tokenId",
          "type": "uint256"
        }
      ],
      "name": "Approval",
      "type": "event"
    },
    {
      "anonymous": false,
      "inputs": [
        {
          "indexed": true,
          "internalType": "address",
          "name": "owner",
          "type": "address"
        },
        {
          "indexed": true,
          "internalType": "address",
          "name": "operator",
          "type": "address"
        },
        {
          "indexed": false,
          "internalType": "bool",
          "name": "approved",
          "type": "bool"
        }
      ],
      "name": "ApprovalForAll",
      "type": "event"
    },
    {
      "anonymous": false,
      "inputs": [
        {
          "indexed": false,
          "internalType": "address",
          "name": "",
          "type": "address"
        },
        {
          "indexed": false,
          "internalType": "string",
          "name": "",
          "type": "string"
        }
      ],
      "name": "NFTApp__NFTMintToUserSuccess",
      "type": "event"
    },
    {
      "anonymous": false,
      "inputs": [
        {
          "indexed": false,
          "internalType": "address",
          "name": "",
          "type": "address"
        },
        {
          "indexed": false,
          "internalType": "uint256",
          "name": "",
          "type": "uint256"
        }
      ],
      "name": "NFTApp__TokensTransferredToUser",
      "type": "event"
    },
    {
      "anonymous": false,
      "inputs": [
        {
          "indexed": true,
          "internalType": "address",
          "name": "previousOwner",
          "type": "address"
        },
        {
          "indexed": true,
          "internalType": "address",
          "name": "newOwner",
          "type": "address"
        }
      ],
      "name": "OwnershipTransferred",
      "type": "event"
    },
    {
      "anonymous": false,
      "inputs": [
        {
          "indexed": true,
          "internalType": "address",
          "name": "from",
          "type": "address"
        },
        {
          "indexed": true,
          "internalType": "address",
          "name": "to",
          "type": "address"
        },
        {
          "indexed": true,
          "internalType": "uint256",
          "name": "tokenId",
          "type": "uint256"
        }
      ],
      "name": "Transfer",
      "type": "event"
    },
    {
      "inputs": [
        {
          "internalType": "address",
          "name": "to",
          "type": "address"
        },
        {
          "internalType": "uint256",
          "name": "tokenId",
          "type": "uint256"
        }
      ],
      "name": "approve",
      "outputs": [],
      "stateMutability": "nonpayable",
      "type": "function"
    },
    {
      "inputs": [
        {
          "internalType": "address",
          "name": "owner",
          "type": "address"
        }
      ],
      "name": "balanceOf",
      "outputs": [
        {
          "internalType": "uint256",
          "name": "",
          "type": "uint256"
        }
      ],
      "stateMutability": "view",
      "type": "function"
    },
    {
      "inputs": [
        {
          "internalType": "uint256",
          "name": "tokenId",
          "type": "uint256"
        }
      ],
      "name": "getApproved",
      "outputs": [
        {
          "internalType": "address",
          "name": "",
          "type": "address"
        }
      ],
      "stateMutability": "view",
      "type": "function"
    },
    {
      "inputs": [],
      "name": "getContractTokenBalance",
      "outputs": [
        {
          "internalType": "uint256",
          "name": "",
          "type": "uint256"
        }
      ],
      "stateMutability": "view",
      "type": "function"
    },
    {
      "inputs": [],
      "name": "getPerTokenValue",
      "outputs": [
        {
          "internalType": "uint256",
          "name": "",
          "type": "uint256"
        }
      ],
      "stateMutability": "pure",
      "type": "function"
    },
    {
      "inputs": [
        {
          "internalType": "address",
          "name": "user_addr",
          "type": "address"
        }
      ],
      "name": "getUserTokenBalance",
      "outputs": [
        {
          "internalType": "uint256",
          "name": "",
          "type": "uint256"
        }
      ],
      "stateMutability": "view",
      "type": "function"
    },
    {
      "inputs": [
        {
          "internalType": "address",
          "name": "owner",
          "type": "address"
        },
        {
          "internalType": "address",
          "name": "operator",
          "type": "address"
        }
      ],
      "name": "isApprovedForAll",
      "outputs": [
        {
          "internalType": "bool",
          "name": "",
          "type": "bool"
        }
      ],
      "stateMutability": "view",
      "type": "function"
    },
    {
      "inputs": [
        {
          "internalType": "address",
          "name": "to",
          "type": "address"
        },
        {
          "internalType": "string",
          "name": "art_uri",
          "type": "string"
        }
      ],
      "name": "mint",
      "outputs": [],
      "stateMutability": "nonpayable",
      "type": "function"
    },
    {
      "inputs": [],
      "name": "name",
      "outputs": [
        {
          "internalType": "string",
          "name": "",
          "type": "string"
        }
      ],
      "stateMutability": "view",
      "type": "function"
    },
    {
      "inputs": [],
      "name": "owner",
      "outputs": [
        {
          "internalType": "address",
          "name": "",
          "type": "address"
        }
      ],
      "stateMutability": "view",
      "type": "function"
    },
    {
      "inputs": [
        {
          "internalType": "uint256",
          "name": "tokenId",
          "type": "uint256"
        }
      ],
      "name": "ownerOf",
      "outputs": [
        {
          "internalType": "address",
          "name": "",
          "type": "address"
        }
      ],
      "stateMutability": "view",
      "type": "function"
    },
    {
      "inputs": [],
      "name": "renounceOwnership",
      "outputs": [],
      "stateMutability": "nonpayable",
      "type": "function"
    },
    {
      "inputs": [
        {
          "internalType": "address",
          "name": "from",
          "type": "address"
        },
        {
          "internalType": "address",
          "name": "to",
          "type": "address"
        },
        {
          "internalType": "uint256",
          "name": "tokenId",
          "type": "uint256"
        }
      ],
      "name": "safeTransferFrom",
      "outputs": [],
      "stateMutability": "nonpayable",
      "type": "function"
    },
    {
      "inputs": [
        {
          "internalType": "address",
          "name": "from",
          "type": "address"
        },
        {
          "internalType": "address",
          "name": "to",
          "type": "address"
        },
        {
          "internalType": "uint256",
          "name": "tokenId",
          "type": "uint256"
        },
        {
          "internalType": "bytes",
          "name": "data",
          "type": "bytes"
        }
      ],
      "name": "safeTransferFrom",
      "outputs": [],
      "stateMutability": "nonpayable",
      "type": "function"
    },
    {
      "inputs": [
        {
          "internalType": "address",
          "name": "operator",
          "type": "address"
        },
        {
          "internalType": "bool",
          "name": "approved",
          "type": "bool"
        }
      ],
      "name": "setApprovalForAll",
      "outputs": [],
      "stateMutability": "nonpayable",
      "type": "function"
    },
    {
      "inputs": [
        {
          "internalType": "bytes4",
          "name": "interfaceId",
          "type": "bytes4"
        }
      ],
      "name": "supportsInterface",
      "outputs": [
        {
          "internalType": "bool",
          "name": "",
          "type": "bool"
        }
      ],
      "stateMutability": "view",
      "type": "function"
    },
    {
      "inputs": [],
      "name": "symbol",
      "outputs": [
        {
          "internalType": "string",
          "name": "",
          "type": "string"
        }
      ],
      "stateMutability": "view",
      "type": "function"
    },
    {
      "inputs": [
        {
          "internalType": "uint256",
          "name": "tokenId",
          "type": "uint256"
        }
      ],
      "name": "tokenURI",
      "outputs": [
        {
          "internalType": "string",
          "name": "",
          "type": "string"
        }
      ],
      "stateMutability": "view",
      "type": "function"
    },
    {
      "inputs": [
        {
          "internalType": "address",
          "name": "from",
          "type": "address"
        },
        {
          "internalType": "address",
          "name": "to",
          "type": "address"
        },
        {
          "internalType": "uint256",
          "name": "tokenId",
          "type": "uint256"
        }
      ],
      "name": "transferFrom",
      "outputs": [],
      "stateMutability": "nonpayable",
      "type": "function"
    },
    {
      "inputs": [
        {
          "internalType": "address",
          "name": "newOwner",
          "type": "address"
        }
      ],
      "name": "transferOwnership",
      "outputs": [],
      "stateMutability": "nonpayable",
      "type": "function"
    },
    {
      "inputs": [
        {
          "internalType": "address",
          "name": "user_addr",
          "type": "address"
        },
        {
          "internalType": "uint256",
          "name": "_amount",
          "type": "uint256"
        }
      ],
      "name": "transferTokensToUser",
      "outputs": [
        {
          "internalType": "bool",
          "name": "",
          "type": "bool"
        }
      ],
      "stateMutability": "nonpayable",
      "type": "function"
    }
  ],
  "bytecode": {
    "object": "0x60806040523480156200001157600080fd5b5060405162002012380380620020128339810160408190526200003491620001c6565b81816000620000448382620002df565b506001620000538282620002df565b505050620000706200006a620000ab60201b60201c565b620000af565b50506001600855600a8054336001600160a01b031991821617909155600980549091166001600160a01b0392909216919091179055620003ab565b3390565b600780546001600160a01b038381166001600160a01b0319831681179093556040519116919082907f8be0079c531659141344cd1fd0a4f28419497f9722a3daafe3b4186f6b6457e090600090a35050565b634e487b7160e01b600052604160045260246000fd5b600082601f8301126200012957600080fd5b81516001600160401b038082111562000146576200014662000101565b604051601f8301601f19908116603f0116810190828211818310171562000171576200017162000101565b816040528381526020925086838588010111156200018e57600080fd5b600091505b83821015620001b2578582018301518183018401529082019062000193565b600093810190920192909252949350505050565b600080600060608486031215620001dc57600080fd5b83516001600160a01b0381168114620001f457600080fd5b60208501519093506001600160401b03808211156200021257600080fd5b620002208783880162000117565b935060408601519150808211156200023757600080fd5b50620002468682870162000117565b9150509250925092565b600181811c908216806200026557607f821691505b6020821081036200028657634e487b7160e01b600052602260045260246000fd5b50919050565b601f821115620002da57600081815260208120601f850160051c81016020861015620002b55750805b601f850160051c820191505b81811015620002d657828155600101620002c1565b5050505b505050565b81516001600160401b03811115620002fb57620002fb62000101565b62000313816200030c845462000250565b846200028c565b602080601f8311600181146200034b5760008415620003325750858301515b600019600386901b1c1916600185901b178555620002d6565b600085815260208120601f198616915b828110156200037c578886015182559484019460019091019084016200035b565b50858210156200039b5787850151600019600388901b60f8161c191681555b5050505050600190811b01905550565b611c5780620003bb6000396000f3fe608060405234801561001057600080fd5b50600436106101375760003560e01c8063715018a6116100b8578063c87b56dd1161007c578063c87b56dd14610269578063d0def5211461027c578063e42d0aac1461028f578063e985e9c5146102a2578063f2fde38b146102b5578063f5aec88c146102c857600080fd5b8063715018a6146102225780638da5cb5b1461022a57806395d89b411461023b578063a22cb46514610243578063b88d4fde1461025657600080fd5b8063317d9453116100ff578063317d9453146101cc57806338a958bc146101e257806342842e0e146101e95780636352211e146101fc57806370a082311461020f57600080fd5b806301ffc9a71461013c57806306fdde0314610164578063081812fc14610179578063095ea7b3146101a457806323b872dd146101b9575b600080fd5b61014f61014a366004611576565b6102db565b60405190151581526020015b60405180910390f35b61016c61032d565b60405161015b91906115e3565b61018c6101873660046115f6565b6103bf565b6040516001600160a01b03909116815260200161015b565b6101b76101b236600461162b565b6103e6565b005b6101b76101c7366004611655565b610500565b6101d4610531565b60405190815260200161015b565b60646101d4565b6101b76101f7366004611655565b6105ac565b61018c61020a3660046115f6565b6105c7565b6101d461021d366004611691565b610627565b6101b76106ad565b6007546001600160a01b031661018c565b61016c6106c1565b6101b76102513660046116ba565b6106d0565b6101b761026436600461177d565b6106df565b61016c6102773660046115f6565b610717565b6101b761028a3660046117f9565b610827565b61014f61029d36600461162b565b6109ed565b61014f6102b036600461185b565b610b3e565b6101b76102c3366004611691565b610b6c565b6101d46102d6366004611691565b610be5565b60006001600160e01b031982166380ac58cd60e01b148061030c57506001600160e01b03198216635b5e139f60e01b145b8061032757506301ffc9a760e01b6001600160e01b03198316145b92915050565b60606000805461033c9061188e565b80601f01602080910402602001604051908101604052809291908181526020018280546103689061188e565b80156103b55780601f1061038a576101008083540402835291602001916103b5565b820191906000526020600020905b81548152906001019060200180831161039857829003601f168201915b5050505050905090565b60006103ca82610c54565b506000908152600460205260409020546001600160a01b031690565b60006103f1826105c7565b9050806001600160a01b0316836001600160a01b0316036104635760405162461bcd60e51b815260206004820152602160248201527f4552433732313a20617070726f76616c20746f2063757272656e74206f776e656044820152603960f91b60648201526084015b60405180910390fd5b336001600160a01b038216148061047f575061047f8133610b3e565b6104f15760405162461bcd60e51b815260206004820152603e60248201527f4552433732313a20617070726f76652063616c6c6572206973206e6f7420746f60448201527f6b656e206f776e6572206e6f7220617070726f76656420666f7220616c6c0000606482015260840161045a565b6104fb8383610cb3565b505050565b61050a3382610d21565b6105265760405162461bcd60e51b815260040161045a906118c8565b6104fb838383610d7f565b600061053b610f1b565b6009546040516370a0823160e01b81523060048201526001600160a01b03909116906370a0823190602401602060405180830381865afa158015610583573d6000803e3d6000fd5b505050506040513d601f19601f820116820180604052508101906105a79190611916565b905090565b6104fb838383604051806020016040528060008152506106df565b6000818152600260205260408120546001600160a01b0316806103275760405162461bcd60e51b8152602060048201526018602482015277115490cdcc8c4e881a5b9d985b1a59081d1bdad95b88125160421b604482015260640161045a565b60006001600160a01b0382166106915760405162461bcd60e51b815260206004820152602960248201527f4552433732313a2061646472657373207a65726f206973206e6f7420612076616044820152683634b21037bbb732b960b91b606482015260840161045a565b506001600160a01b031660009081526003602052604090205490565b6106b5610f1b565b6106bf6000610f75565b565b60606001805461033c9061188e565b6106db338383610fc7565b5050565b6106e93383610d21565b6107055760405162461bcd60e51b815260040161045a906118c8565b61071184848484611095565b50505050565b606061072282610c54565b6000828152600660205260408120805461073b9061188e565b80601f01602080910402602001604051908101604052809291908181526020018280546107679061188e565b80156107b45780601f10610789576101008083540402835291602001916107b4565b820191906000526020600020905b81548152906001019060200180831161079757829003601f168201915b5050505050905060006107d260408051602081019091526000815290565b905080516000036107e4575092915050565b8151156108165780826040516020016107fe92919061192f565b60405160208183030381529060405292505050919050565b61081f846110c8565b949350505050565b6002600854036108795760405162461bcd60e51b815260206004820152601f60248201527f5265656e7472616e637947756172643a207265656e7472616e742063616c6c00604482015260640161045a565b60026008556000610889600b5490565b9050610899600b80546001019055565b6108ac6064670de0b6b3a7640000611974565b6108b533610be5565b10156108d457604051633bac2c8d60e11b815260040160405180910390fd5b6009546000906001600160a01b03166323b872dd33306108fd6064670de0b6b3a7640000611974565b6040516001600160e01b031960e086901b1681526001600160a01b03938416600482015292909116602483015260448201526064016020604051808303816000875af1158015610951573d6000803e3d6000fd5b505050506040513d601f19601f820116820180604052508101906109759190611993565b90508061099557604051634057de4760e11b815260040160405180910390fd5b61099f848361113c565b6109a98284611156565b7f9d6a988830d89ded41aaa4153d70d1ac3555c2e487357cced2b84a887b173b5484846040516109da9291906119b0565b60405180910390a1505050600160085550565b6000600260085403610a415760405162461bcd60e51b815260206004820152601f60248201527f5265656e7472616e637947756172643a207265656e7472616e742063616c6c00604482015260640161045a565b6002600855600954600a546040516323b872dd60e01b81526001600160a01b03918216600482015285821660248201526044810185905260009291909116906323b872dd906064016020604051808303816000875af1158015610aa8573d6000803e3d6000fd5b505050506040513d601f19601f82011682018060405250810190610acc9190611993565b905080610aec57604051633513366360e21b815260040160405180910390fd5b604080516001600160a01b0386168152602081018590527fd77abb2dde547c500d96139468a61d085229b7d242529da6fad6194ee1f39f35910160405180910390a16001915050600160085592915050565b6001600160a01b03918216600090815260056020908152604080832093909416825291909152205460ff1690565b610b74610f1b565b6001600160a01b038116610bd95760405162461bcd60e51b815260206004820152602660248201527f4f776e61626c653a206e6577206f776e657220697320746865207a65726f206160448201526564647265737360d01b606482015260840161045a565b610be281610f75565b50565b6009546040516370a0823160e01b81526001600160a01b03838116600483015260009216906370a0823190602401602060405180830381865afa158015610c30573d6000803e3d6000fd5b505050506040513d601f19601f820116820180604052508101906103279190611916565b6000818152600260205260409020546001600160a01b0316610be25760405162461bcd60e51b8152602060048201526018602482015277115490cdcc8c4e881a5b9d985b1a59081d1bdad95b88125160421b604482015260640161045a565b600081815260046020526040902080546001600160a01b0319166001600160a01b0384169081179091558190610ce8826105c7565b6001600160a01b03167f8c5be1e5ebec7d5bd14f71427d1e84f3dd0314c0f7b2291e5b200ac8c7c3b92560405160405180910390a45050565b600080610d2d836105c7565b9050806001600160a01b0316846001600160a01b03161480610d545750610d548185610b3e565b8061081f5750836001600160a01b0316610d6d846103bf565b6001600160a01b031614949350505050565b826001600160a01b0316610d92826105c7565b6001600160a01b031614610df65760405162461bcd60e51b815260206004820152602560248201527f4552433732313a207472616e736665722066726f6d20696e636f72726563742060448201526437bbb732b960d91b606482015260840161045a565b6001600160a01b038216610e585760405162461bcd60e51b8152602060048201526024808201527f4552433732313a207472616e7366657220746f20746865207a65726f206164646044820152637265737360e01b606482015260840161045a565b610e63600082610cb3565b6001600160a01b0383166000908152600360205260408120805460019290610e8c9084906119d4565b90915550506001600160a01b0382166000908152600360205260408120805460019290610eba9084906119e7565b909155505060008181526002602052604080822080546001600160a01b0319166001600160a01b0386811691821790925591518493918716917fddf252ad1be2c89b69c2b068fc378daa952ba7f163c4a11628f55a4df523b3ef91a4505050565b6007546001600160a01b031633146106bf5760405162461bcd60e51b815260206004820181905260248201527f4f776e61626c653a2063616c6c6572206973206e6f7420746865206f776e6572604482015260640161045a565b600780546001600160a01b038381166001600160a01b0319831681179093556040519116919082907f8be0079c531659141344cd1fd0a4f28419497f9722a3daafe3b4186f6b6457e090600090a35050565b816001600160a01b0316836001600160a01b0316036110285760405162461bcd60e51b815260206004820152601960248201527f4552433732313a20617070726f766520746f2063616c6c657200000000000000604482015260640161045a565b6001600160a01b03838116600081815260056020908152604080832094871680845294825291829020805460ff191686151590811790915591519182527f17307eab39ab6107e8899845ad3d59bd9653f200f220920489ca2b5937696c31910160405180910390a3505050565b6110a0848484610d7f565b6110ac848484846111e9565b6107115760405162461bcd60e51b815260040161045a906119fa565b60606110d382610c54565b60006110ea60408051602081019091526000815290565b9050600081511161110a5760405180602001604052806000815250611135565b80611114846112ea565b60405160200161112592919061192f565b6040516020818303038152906040525b9392505050565b6106db8282604051806020016040528060008152506113eb565b6000828152600260205260409020546001600160a01b03166111d15760405162461bcd60e51b815260206004820152602e60248201527f45524337323155524953746f726167653a2055524920736574206f66206e6f6e60448201526d32bc34b9ba32b73a103a37b5b2b760911b606482015260840161045a565b60008281526006602052604090206104fb8282611a9a565b60006001600160a01b0384163b156112df57604051630a85bd0160e11b81526001600160a01b0385169063150b7a029061122d903390899088908890600401611b5a565b6020604051808303816000875af1925050508015611268575060408051601f3d908101601f1916820190925261126591810190611b97565b60015b6112c5573d808015611296576040519150601f19603f3d011682016040523d82523d6000602084013e61129b565b606091505b5080516000036112bd5760405162461bcd60e51b815260040161045a906119fa565b805181602001fd5b6001600160e01b031916630a85bd0160e11b14905061081f565b506001949350505050565b6060816000036113115750506040805180820190915260018152600360fc1b602082015290565b8160005b811561133b578061132581611bb4565b91506113349050600a83611be3565b9150611315565b60008167ffffffffffffffff811115611356576113566116f1565b6040519080825280601f01601f191660200182016040528015611380576020820181803683370190505b5090505b841561081f576113956001836119d4565b91506113a2600a86611bf7565b6113ad9060306119e7565b60f81b8183815181106113c2576113c2611c0b565b60200101906001600160f81b031916908160001a9053506113e4600a86611be3565b9450611384565b6113f5838361141e565b61140260008484846111e9565b6104fb5760405162461bcd60e51b815260040161045a906119fa565b6001600160a01b0382166114745760405162461bcd60e51b815260206004820181905260248201527f4552433732313a206d696e7420746f20746865207a65726f2061646472657373604482015260640161045a565b6000818152600260205260409020546001600160a01b0316156114d95760405162461bcd60e51b815260206004820152601c60248201527f4552433732313a20746f6b656e20616c7265616479206d696e74656400000000604482015260640161045a565b6001600160a01b03821660009081526003602052604081208054600192906115029084906119e7565b909155505060008181526002602052604080822080546001600160a01b0319166001600160a01b03861690811790915590518392907fddf252ad1be2c89b69c2b068fc378daa952ba7f163c4a11628f55a4df523b3ef908290a45050565b6001600160e01b031981168114610be257600080fd5b60006020828403121561158857600080fd5b813561113581611560565b60005b838110156115ae578181015183820152602001611596565b50506000910152565b600081518084526115cf816020860160208601611593565b601f01601f19169290920160200192915050565b60208152600061113560208301846115b7565b60006020828403121561160857600080fd5b5035919050565b80356001600160a01b038116811461162657600080fd5b919050565b6000806040838503121561163e57600080fd5b6116478361160f565b946020939093013593505050565b60008060006060848603121561166a57600080fd5b6116738461160f565b92506116816020850161160f565b9150604084013590509250925092565b6000602082840312156116a357600080fd5b6111358261160f565b8015158114610be257600080fd5b600080604083850312156116cd57600080fd5b6116d68361160f565b915060208301356116e6816116ac565b809150509250929050565b634e487b7160e01b600052604160045260246000fd5b600067ffffffffffffffff80841115611722576117226116f1565b604051601f8501601f19908116603f0116810190828211818310171561174a5761174a6116f1565b8160405280935085815286868601111561176357600080fd5b858560208301376000602087830101525050509392505050565b6000806000806080858703121561179357600080fd5b61179c8561160f565b93506117aa6020860161160f565b925060408501359150606085013567ffffffffffffffff8111156117cd57600080fd5b8501601f810187136117de57600080fd5b6117ed87823560208401611707565b91505092959194509250565b6000806040838503121561180c57600080fd5b6118158361160f565b9150602083013567ffffffffffffffff81111561183157600080fd5b8301601f8101851361184257600080fd5b61185185823560208401611707565b9150509250929050565b6000806040838503121561186e57600080fd5b6118778361160f565b91506118856020840161160f565b90509250929050565b600181811c908216806118a257607f821691505b6020821081036118c257634e487b7160e01b600052602260045260246000fd5b50919050565b6020808252602e908201527f4552433732313a2063616c6c6572206973206e6f7420746f6b656e206f776e6560408201526d1c881b9bdc88185c1c1c9bdd995960921b606082015260800190565b60006020828403121561192857600080fd5b5051919050565b60008351611941818460208801611593565b835190830190611955818360208801611593565b01949350505050565b634e487b7160e01b600052601160045260246000fd5b600081600019048311821515161561198e5761198e61195e565b500290565b6000602082840312156119a557600080fd5b8151611135816116ac565b6001600160a01b038316815260406020820181905260009061081f908301846115b7565b818103818111156103275761032761195e565b808201808211156103275761032761195e565b60208082526032908201527f4552433732313a207472616e7366657220746f206e6f6e20455243373231526560408201527131b2b4bb32b91034b6b83632b6b2b73a32b960711b606082015260800190565b601f8211156104fb57600081815260208120601f850160051c81016020861015611a735750805b601f850160051c820191505b81811015611a9257828155600101611a7f565b505050505050565b815167ffffffffffffffff811115611ab457611ab46116f1565b611ac881611ac2845461188e565b84611a4c565b602080601f831160018114611afd5760008415611ae55750858301515b600019600386901b1c1916600185901b178555611a92565b600085815260208120601f198616915b82811015611b2c57888601518255948401946001909101908401611b0d565b5085821015611b4a5787850151600019600388901b60f8161c191681555b5050505050600190811b01905550565b6001600160a01b0385811682528416602082015260408101839052608060608201819052600090611b8d908301846115b7565b9695505050505050565b600060208284031215611ba957600080fd5b815161113581611560565b600060018201611bc657611bc661195e565b5060010190565b634e487b7160e01b600052601260045260246000fd5b600082611bf257611bf2611bcd565b500490565b600082611c0657611c06611bcd565b500690565b634e487b7160e01b600052603260045260246000fdfea2646970667358221220b996d28dd7323b1da9b392c105c817ddff7ee45b599fadd186588d293ed0c42f64736f6c63430008100033",
    "linkReferences": {}
  },
  "methodIdentifiers": {
    "approve(address,uint256)": "095ea7b3",
    "balanceOf(address)": "70a08231",
    "getApproved(uint256)": "081812fc",
    "getContractTokenBalance()": "317d9453",
    "getPerTokenValue()": "38a958bc",
    "getUserTokenBalance(address)": "f5aec88c",
    "isApprovedForAll(address,address)": "e985e9c5",
    "mint(address,string)": "d0def521",
    "name()": "06fdde03",
    "owner()": "8da5cb5b",
    "ownerOf(uint256)": "6352211e",
    "renounceOwnership()": "715018a6",
    "safeTransferFrom(address,address,uint256)": "42842e0e",
    "safeTransferFrom(address,address,uint256,bytes)": "b88d4fde",
    "setApprovalForAll(address,bool)": "a22cb465",
    "supportsInterface(bytes4)": "01ffc9a7",
    "symbol()": "95d89b41",
    "tokenURI(uint256)": "c87b56dd",
    "transferFrom(address,address,uint256)": "23b872dd",
    "transferOwnership(address)": "f2fde38b",
    "transferTokensToUser(address,uint256)": "e42d0aac"
  },
  "id": 20
}