{
  "abi": [
    {
      "inputs": [
        {
          "internalType": "address",
          "name": "_tokenAddress",
          "type": "address"
        },
        {
          "internalType": "string",
          "name": "_tokenName",
          "type": "string"
        },
        {
          "internalType": "string",
          "name": "_tokenSymbol",
          "type": "string"
        }
      ],
      "stateMutability": "nonpayable",
      "type": "constructor"
    },
    {
      "inputs": [],
      "name": "NFTApp__LowTokenUser",
      "type": "error"
    },
    {
      "inputs": [],
      "name": "NFTApp__TokenTransferToNFTContractFailed",
      "type": "error"
    },
    {
      "inputs": [],
      "name": "NFTApp__TokenTransferToUserFailed",
      "type": "error"
    },
    {
      "anonymous": false,
      "inputs": [
        {
          "indexed": true,
          "internalType": "address",
          "name": "owner",
          "type": "address"
        },
        {
          "indexed": true,
          "internalType": "address",
          "name": "approved",
          "type": "address"
        },
        {
          "indexed": true,
          "internalType": "uint256",
          "name": "tokenId",
          "type": "uint256"
        }
      ],
      "name": "Approval",
      "type": "event"
    },
    {
      "anonymous": false,
      "inputs": [
        {
          "indexed": true,
          "internalType": "address",
          "name": "owner",
          "type": "address"
        },
        {
          "indexed": true,
          "internalType": "address",
          "name": "operator",
          "type": "address"
        },
        {
          "indexed": false,
          "internalType": "bool",
          "name": "approved",
          "type": "bool"
        }
      ],
      "name": "ApprovalForAll",
      "type": "event"
    },
    {
      "anonymous": false,
      "inputs": [
        {
          "indexed": false,
          "internalType": "address",
          "name": "",
          "type": "address"
        },
        {
          "indexed": false,
          "internalType": "string",
          "name": "",
          "type": "string"
        }
      ],
      "name": "NFTApp__NFTMintToUserSuccess",
      "type": "event"
    },
    {
      "anonymous": false,
      "inputs": [
        {
          "indexed": true,
          "internalType": "address",
          "name": "previousOwner",
          "type": "address"
        },
        {
          "indexed": true,
          "internalType": "address",
          "name": "newOwner",
          "type": "address"
        }
      ],
      "name": "OwnershipTransferred",
      "type": "event"
    },
    {
      "anonymous": false,
      "inputs": [
        {
          "indexed": true,
          "internalType": "address",
          "name": "from",
          "type": "address"
        },
        {
          "indexed": true,
          "internalType": "address",
          "name": "to",
          "type": "address"
        },
        {
          "indexed": true,
          "internalType": "uint256",
          "name": "tokenId",
          "type": "uint256"
        }
      ],
      "name": "Transfer",
      "type": "event"
    },
    {
      "inputs": [
        {
          "internalType": "address",
          "name": "to",
          "type": "address"
        },
        {
          "internalType": "uint256",
          "name": "tokenId",
          "type": "uint256"
        }
      ],
      "name": "approve",
      "outputs": [],
      "stateMutability": "nonpayable",
      "type": "function"
    },
    {
      "inputs": [
        {
          "internalType": "uint256",
          "name": "_tokenamount",
          "type": "uint256"
        }
      ],
      "name": "approveTokensForContract",
      "outputs": [
        {
          "internalType": "bool",
          "name": "",
          "type": "bool"
        }
      ],
      "stateMutability": "nonpayable",
      "type": "function"
    },
    {
      "inputs": [
        {
          "internalType": "address",
          "name": "owner",
          "type": "address"
        }
      ],
      "name": "balanceOf",
      "outputs": [
        {
          "internalType": "uint256",
          "name": "",
          "type": "uint256"
        }
      ],
      "stateMutability": "view",
      "type": "function"
    },
    {
      "inputs": [],
      "name": "getAllowance",
      "outputs": [
        {
          "internalType": "uint256",
          "name": "",
          "type": "uint256"
        }
      ],
      "stateMutability": "view",
      "type": "function"
    },
    {
      "inputs": [
        {
          "internalType": "uint256",
          "name": "tokenId",
          "type": "uint256"
        }
      ],
      "name": "getApproved",
      "outputs": [
        {
          "internalType": "address",
          "name": "",
          "type": "address"
        }
      ],
      "stateMutability": "view",
      "type": "function"
    },
    {
      "inputs": [],
      "name": "getContractTokenBalance",
      "outputs": [
        {
          "internalType": "uint256",
          "name": "",
          "type": "uint256"
        }
      ],
      "stateMutability": "view",
      "type": "function"
    },
    {
      "inputs": [
        {
          "internalType": "address",
          "name": "user_addr",
          "type": "address"
        }
      ],
      "name": "getUserTokenBalance",
      "outputs": [
        {
          "internalType": "uint256",
          "name": "",
          "type": "uint256"
        }
      ],
      "stateMutability": "view",
      "type": "function"
    },
    {
      "inputs": [
        {
          "internalType": "address",
          "name": "owner",
          "type": "address"
        },
        {
          "internalType": "address",
          "name": "operator",
          "type": "address"
        }
      ],
      "name": "isApprovedForAll",
      "outputs": [
        {
          "internalType": "bool",
          "name": "",
          "type": "bool"
        }
      ],
      "stateMutability": "view",
      "type": "function"
    },
    {
      "inputs": [
        {
          "internalType": "address",
          "name": "to",
          "type": "address"
        },
        {
          "internalType": "string",
          "name": "art_uri",
          "type": "string"
        }
      ],
      "name": "mint",
      "outputs": [],
      "stateMutability": "nonpayable",
      "type": "function"
    },
    {
      "inputs": [],
      "name": "name",
      "outputs": [
        {
          "internalType": "string",
          "name": "",
          "type": "string"
        }
      ],
      "stateMutability": "view",
      "type": "function"
    },
    {
      "inputs": [],
      "name": "owner",
      "outputs": [
        {
          "internalType": "address",
          "name": "",
          "type": "address"
        }
      ],
      "stateMutability": "view",
      "type": "function"
    },
    {
      "inputs": [
        {
          "internalType": "uint256",
          "name": "tokenId",
          "type": "uint256"
        }
      ],
      "name": "ownerOf",
      "outputs": [
        {
          "internalType": "address",
          "name": "",
          "type": "address"
        }
      ],
      "stateMutability": "view",
      "type": "function"
    },
    {
      "inputs": [],
      "name": "owner_addr",
      "outputs": [
        {
          "internalType": "address",
          "name": "",
          "type": "address"
        }
      ],
      "stateMutability": "view",
      "type": "function"
    },
    {
      "inputs": [],
      "name": "renounceOwnership",
      "outputs": [],
      "stateMutability": "nonpayable",
      "type": "function"
    },
    {
      "inputs": [],
      "name": "s_NFTToken",
      "outputs": [
        {
          "internalType": "contract IERC20",
          "name": "",
          "type": "address"
        }
      ],
      "stateMutability": "view",
      "type": "function"
    },
    {
      "inputs": [
        {
          "internalType": "address",
          "name": "from",
          "type": "address"
        },
        {
          "internalType": "address",
          "name": "to",
          "type": "address"
        },
        {
          "internalType": "uint256",
          "name": "tokenId",
          "type": "uint256"
        }
      ],
      "name": "safeTransferFrom",
      "outputs": [],
      "stateMutability": "nonpayable",
      "type": "function"
    },
    {
      "inputs": [
        {
          "internalType": "address",
          "name": "from",
          "type": "address"
        },
        {
          "internalType": "address",
          "name": "to",
          "type": "address"
        },
        {
          "internalType": "uint256",
          "name": "tokenId",
          "type": "uint256"
        },
        {
          "internalType": "bytes",
          "name": "data",
          "type": "bytes"
        }
      ],
      "name": "safeTransferFrom",
      "outputs": [],
      "stateMutability": "nonpayable",
      "type": "function"
    },
    {
      "inputs": [
        {
          "internalType": "address",
          "name": "operator",
          "type": "address"
        },
        {
          "internalType": "bool",
          "name": "approved",
          "type": "bool"
        }
      ],
      "name": "setApprovalForAll",
      "outputs": [],
      "stateMutability": "nonpayable",
      "type": "function"
    },
    {
      "inputs": [
        {
          "internalType": "bytes4",
          "name": "interfaceId",
          "type": "bytes4"
        }
      ],
      "name": "supportsInterface",
      "outputs": [
        {
          "internalType": "bool",
          "name": "",
          "type": "bool"
        }
      ],
      "stateMutability": "view",
      "type": "function"
    },
    {
      "inputs": [],
      "name": "symbol",
      "outputs": [
        {
          "internalType": "string",
          "name": "",
          "type": "string"
        }
      ],
      "stateMutability": "view",
      "type": "function"
    },
    {
      "inputs": [
        {
          "internalType": "uint256",
          "name": "tokenId",
          "type": "uint256"
        }
      ],
      "name": "tokenURI",
      "outputs": [
        {
          "internalType": "string",
          "name": "",
          "type": "string"
        }
      ],
      "stateMutability": "view",
      "type": "function"
    },
    {
      "inputs": [
        {
          "internalType": "address",
          "name": "from",
          "type": "address"
        },
        {
          "internalType": "address",
          "name": "to",
          "type": "address"
        },
        {
          "internalType": "uint256",
          "name": "tokenId",
          "type": "uint256"
        }
      ],
      "name": "transferFrom",
      "outputs": [],
      "stateMutability": "nonpayable",
      "type": "function"
    },
    {
      "inputs": [
        {
          "internalType": "address",
          "name": "newOwner",
          "type": "address"
        }
      ],
      "name": "transferOwnership",
      "outputs": [],
      "stateMutability": "nonpayable",
      "type": "function"
    },
    {
      "inputs": [
        {
          "internalType": "address",
          "name": "user_addr",
          "type": "address"
        },
        {
          "internalType": "uint256",
          "name": "_amount",
          "type": "uint256"
        }
      ],
      "name": "transferTokensToUser",
      "outputs": [
        {
          "internalType": "bool",
          "name": "",
          "type": "bool"
        }
      ],
      "stateMutability": "nonpayable",
      "type": "function"
    }
  ],
  "bytecode": {
    "object": "0x60806040523480156200001157600080fd5b5060405162002064380380620020648339810160408190526200003491620001c6565b81816000620000448382620002df565b506001620000538282620002df565b505050620000706200006a620000ab60201b60201c565b620000af565b50506001600855600a8054336001600160a01b031991821617909155600980549091166001600160a01b0392909216919091179055620003ab565b3390565b600780546001600160a01b038381166001600160a01b0319831681179093556040519116919082907f8be0079c531659141344cd1fd0a4f28419497f9722a3daafe3b4186f6b6457e090600090a35050565b634e487b7160e01b600052604160045260246000fd5b600082601f8301126200012957600080fd5b81516001600160401b038082111562000146576200014662000101565b604051601f8301601f19908116603f0116810190828211818310171562000171576200017162000101565b816040528381526020925086838588010111156200018e57600080fd5b600091505b83821015620001b2578582018301518183018401529082019062000193565b600093810190920192909252949350505050565b600080600060608486031215620001dc57600080fd5b83516001600160a01b0381168114620001f457600080fd5b60208501519093506001600160401b03808211156200021257600080fd5b620002208783880162000117565b935060408601519150808211156200023757600080fd5b50620002468682870162000117565b9150509250925092565b600181811c908216806200026557607f821691505b6020821081036200028657634e487b7160e01b600052602260045260246000fd5b50919050565b601f821115620002da57600081815260208120601f850160051c81016020861015620002b55750805b601f850160051c820191505b81811015620002d657828155600101620002c1565b5050505b505050565b81516001600160401b03811115620002fb57620002fb62000101565b62000313816200030c845462000250565b846200028c565b602080601f8311600181146200034b5760008415620003325750858301515b600019600386901b1c1916600185901b178555620002d6565b600085815260208120601f198616915b828110156200037c578886015182559484019460019091019084016200035b565b50858210156200039b5787850151600019600388901b60f8161c191681555b5050505050600190811b01905550565b611ca980620003bb6000396000f3fe608060405234801561001057600080fd5b50600436106101585760003560e01c80638da5cb5b116100c3578063d0def5211161007c578063d0def521146102c4578063d43af51c146102d7578063e42d0aac146102ea578063e985e9c5146102fd578063f2fde38b14610339578063f5aec88c1461034c57600080fd5b80638da5cb5b1461026a57806395d89b411461027b578063973e9b8b14610283578063a22cb4651461028b578063b88d4fde1461029e578063c87b56dd146102b157600080fd5b806342842e0e1161011557806342842e0e1461020357806352356f93146102165780636352211e1461022957806370a082311461023c578063715018a61461024f57806389cebfdf1461025757600080fd5b806301ffc9a71461015d57806306fdde0314610185578063081812fc1461019a578063095ea7b3146101c557806323b872dd146101da578063317d9453146101ed575b600080fd5b61017061016b3660046115c8565b61035f565b60405190151581526020015b60405180910390f35b61018d6103b1565b60405161017c9190611635565b6101ad6101a8366004611648565b610443565b6040516001600160a01b03909116815260200161017c565b6101d86101d336600461167d565b61046a565b005b6101d86101e83660046116a7565b610584565b6101f56105b5565b60405190815260200161017c565b6101d86102113660046116a7565b610631565b6009546101ad906001600160a01b031681565b6101ad610237366004611648565b61064c565b6101f561024a3660046116e3565b6106ac565b6101d8610732565b610170610265366004611648565b610746565b6007546001600160a01b03166101ad565b61018d6107e9565b6101f56107f8565b6101d861029936600461170c565b61082f565b6101d86102ac3660046117cf565b61083e565b61018d6102bf366004611648565b610876565b6101d86102d236600461184b565b610986565b600a546101ad906001600160a01b031681565b6101706102f836600461167d565b610aef565b61017061030b3660046118ad565b6001600160a01b03918216600090815260056020908152604080832093909416825291909152205460ff1690565b6101d86103473660046116e3565b610b9e565b6101f561035a3660046116e3565b610c17565b60006001600160e01b031982166380ac58cd60e01b148061039057506001600160e01b03198216635b5e139f60e01b145b806103ab57506301ffc9a760e01b6001600160e01b03198316145b92915050565b6060600080546103c0906118e0565b80601f01602080910402602001604051908101604052809291908181526020018280546103ec906118e0565b80156104395780601f1061040e57610100808354040283529160200191610439565b820191906000526020600020905b81548152906001019060200180831161041c57829003601f168201915b5050505050905090565b600061044e82610c86565b506000908152600460205260409020546001600160a01b031690565b60006104758261064c565b9050806001600160a01b0316836001600160a01b0316036104e75760405162461bcd60e51b815260206004820152602160248201527f4552433732313a20617070726f76616c20746f2063757272656e74206f776e656044820152603960f91b60648201526084015b60405180910390fd5b336001600160a01b03821614806105035750610503813361030b565b6105755760405162461bcd60e51b815260206004820152603e60248201527f4552433732313a20617070726f76652063616c6c6572206973206e6f7420746f60448201527f6b656e206f776e6572206e6f7220617070726f76656420666f7220616c6c000060648201526084016104de565b61057f8383610ce5565b505050565b61058e3382610d53565b6105aa5760405162461bcd60e51b81526004016104de9061191a565b61057f838383610dd1565b60006105bf610f6d565b6009546040516370a0823160e01b81523060048201526001600160a01b03909116906370a08231906024015b602060405180830381865afa158015610608573d6000803e3d6000fd5b505050506040513d601f19601f8201168201806040525081019061062c9190611968565b905090565b61057f8383836040518060200160405280600081525061083e565b6000818152600260205260408120546001600160a01b0316806103ab5760405162461bcd60e51b8152602060048201526018602482015277115490cdcc8c4e881a5b9d985b1a59081d1bdad95b88125160421b60448201526064016104de565b60006001600160a01b0382166107165760405162461bcd60e51b815260206004820152602960248201527f4552433732313a2061646472657373207a65726f206973206e6f7420612076616044820152683634b21037bbb732b960b91b60648201526084016104de565b506001600160a01b031660009081526003602052604090205490565b61073a610f6d565b6107446000610fc7565b565b60095460405163095ea7b360e01b81523060048201526024810183905260009182916001600160a01b039091169063095ea7b3906044016020604051808303816000875af115801561079c573d6000803e3d6000fd5b505050506040513d601f19601f820116820180604052508101906107c09190611981565b9050806107e057604051633513366360e21b815260040160405180910390fd5b50600192915050565b6060600180546103c0906118e0565b600954604051636eb1769f60e11b81523360048201523060248201526000916001600160a01b03169063dd62ed3e906044016105eb565b61083a338383611019565b5050565b6108483383610d53565b6108645760405162461bcd60e51b81526004016104de9061191a565b610870848484846110e7565b50505050565b606061088182610c86565b6000828152600660205260408120805461089a906118e0565b80601f01602080910402602001604051908101604052809291908181526020018280546108c6906118e0565b80156109135780601f106108e857610100808354040283529160200191610913565b820191906000526020600020905b8154815290600101906020018083116108f657829003601f168201915b50505050509050600061093160408051602081019091526000815290565b90508051600003610943575092915050565b81511561097557808260405160200161095d92919061199e565b60405160208183030381529060405292505050919050565b61097e8461111a565b949350505050565b6000610991600b5490565b90506109a1600b80546001019055565b6109b46064670de0b6b3a76400006119e3565b6109bc6107f8565b10156109db57604051633bac2c8d60e11b815260040160405180910390fd5b6009546000906001600160a01b03166323b872dd3330610a046064670de0b6b3a76400006119e3565b6040516001600160e01b031960e086901b1681526001600160a01b03938416600482015292909116602483015260448201526064016020604051808303816000875af1158015610a58573d6000803e3d6000fd5b505050506040513d601f19601f82011682018060405250810190610a7c9190611981565b905080610a9c57604051634057de4760e11b815260040160405180910390fd5b610aa6848361118e565b610ab082846111a8565b7f9d6a988830d89ded41aaa4153d70d1ac3555c2e487357cced2b84a887b173b548484604051610ae1929190611a02565b60405180910390a150505050565b600954600a546040516323b872dd60e01b81526001600160a01b039182166004820152848216602482015260448101849052600092839216906323b872dd906064016020604051808303816000875af1158015610b50573d6000803e3d6000fd5b505050506040513d601f19601f82011682018060405250810190610b749190611981565b905080610b9457604051633513366360e21b815260040160405180910390fd5b5060019392505050565b610ba6610f6d565b6001600160a01b038116610c0b5760405162461bcd60e51b815260206004820152602660248201527f4f776e61626c653a206e6577206f776e657220697320746865207a65726f206160448201526564647265737360d01b60648201526084016104de565b610c1481610fc7565b50565b6009546040516370a0823160e01b81526001600160a01b03838116600483015260009216906370a0823190602401602060405180830381865afa158015610c62573d6000803e3d6000fd5b505050506040513d601f19601f820116820180604052508101906103ab9190611968565b6000818152600260205260409020546001600160a01b0316610c145760405162461bcd60e51b8152602060048201526018602482015277115490cdcc8c4e881a5b9d985b1a59081d1bdad95b88125160421b60448201526064016104de565b600081815260046020526040902080546001600160a01b0319166001600160a01b0384169081179091558190610d1a8261064c565b6001600160a01b03167f8c5be1e5ebec7d5bd14f71427d1e84f3dd0314c0f7b2291e5b200ac8c7c3b92560405160405180910390a45050565b600080610d5f8361064c565b9050806001600160a01b0316846001600160a01b03161480610da657506001600160a01b0380821660009081526005602090815260408083209388168352929052205460ff165b8061097e5750836001600160a01b0316610dbf84610443565b6001600160a01b031614949350505050565b826001600160a01b0316610de48261064c565b6001600160a01b031614610e485760405162461bcd60e51b815260206004820152602560248201527f4552433732313a207472616e736665722066726f6d20696e636f72726563742060448201526437bbb732b960d91b60648201526084016104de565b6001600160a01b038216610eaa5760405162461bcd60e51b8152602060048201526024808201527f4552433732313a207472616e7366657220746f20746865207a65726f206164646044820152637265737360e01b60648201526084016104de565b610eb5600082610ce5565b6001600160a01b0383166000908152600360205260408120805460019290610ede908490611a26565b90915550506001600160a01b0382166000908152600360205260408120805460019290610f0c908490611a39565b909155505060008181526002602052604080822080546001600160a01b0319166001600160a01b0386811691821790925591518493918716917fddf252ad1be2c89b69c2b068fc378daa952ba7f163c4a11628f55a4df523b3ef91a4505050565b6007546001600160a01b031633146107445760405162461bcd60e51b815260206004820181905260248201527f4f776e61626c653a2063616c6c6572206973206e6f7420746865206f776e657260448201526064016104de565b600780546001600160a01b038381166001600160a01b0319831681179093556040519116919082907f8be0079c531659141344cd1fd0a4f28419497f9722a3daafe3b4186f6b6457e090600090a35050565b816001600160a01b0316836001600160a01b03160361107a5760405162461bcd60e51b815260206004820152601960248201527f4552433732313a20617070726f766520746f2063616c6c65720000000000000060448201526064016104de565b6001600160a01b03838116600081815260056020908152604080832094871680845294825291829020805460ff191686151590811790915591519182527f17307eab39ab6107e8899845ad3d59bd9653f200f220920489ca2b5937696c31910160405180910390a3505050565b6110f2848484610dd1565b6110fe8484848461123b565b6108705760405162461bcd60e51b81526004016104de90611a4c565b606061112582610c86565b600061113c60408051602081019091526000815290565b9050600081511161115c5760405180602001604052806000815250611187565b806111668461133c565b60405160200161117792919061199e565b6040516020818303038152906040525b9392505050565b61083a82826040518060200160405280600081525061143d565b6000828152600260205260409020546001600160a01b03166112235760405162461bcd60e51b815260206004820152602e60248201527f45524337323155524953746f726167653a2055524920736574206f66206e6f6e60448201526d32bc34b9ba32b73a103a37b5b2b760911b60648201526084016104de565b600082815260066020526040902061057f8282611aec565b60006001600160a01b0384163b1561133157604051630a85bd0160e11b81526001600160a01b0385169063150b7a029061127f903390899088908890600401611bac565b6020604051808303816000875af19250505080156112ba575060408051601f3d908101601f191682019092526112b791810190611be9565b60015b611317573d8080156112e8576040519150601f19603f3d011682016040523d82523d6000602084013e6112ed565b606091505b50805160000361130f5760405162461bcd60e51b81526004016104de90611a4c565b805181602001fd5b6001600160e01b031916630a85bd0160e11b14905061097e565b506001949350505050565b6060816000036113635750506040805180820190915260018152600360fc1b602082015290565b8160005b811561138d578061137781611c06565b91506113869050600a83611c35565b9150611367565b60008167ffffffffffffffff8111156113a8576113a8611743565b6040519080825280601f01601f1916602001820160405280156113d2576020820181803683370190505b5090505b841561097e576113e7600183611a26565b91506113f4600a86611c49565b6113ff906030611a39565b60f81b81838151811061141457611414611c5d565b60200101906001600160f81b031916908160001a905350611436600a86611c35565b94506113d6565b6114478383611470565b611454600084848461123b565b61057f5760405162461bcd60e51b81526004016104de90611a4c565b6001600160a01b0382166114c65760405162461bcd60e51b815260206004820181905260248201527f4552433732313a206d696e7420746f20746865207a65726f206164647265737360448201526064016104de565b6000818152600260205260409020546001600160a01b03161561152b5760405162461bcd60e51b815260206004820152601c60248201527f4552433732313a20746f6b656e20616c7265616479206d696e7465640000000060448201526064016104de565b6001600160a01b0382166000908152600360205260408120805460019290611554908490611a39565b909155505060008181526002602052604080822080546001600160a01b0319166001600160a01b03861690811790915590518392907fddf252ad1be2c89b69c2b068fc378daa952ba7f163c4a11628f55a4df523b3ef908290a45050565b6001600160e01b031981168114610c1457600080fd5b6000602082840312156115da57600080fd5b8135611187816115b2565b60005b838110156116005781810151838201526020016115e8565b50506000910152565b600081518084526116218160208601602086016115e5565b601f01601f19169290920160200192915050565b6020815260006111876020830184611609565b60006020828403121561165a57600080fd5b5035919050565b80356001600160a01b038116811461167857600080fd5b919050565b6000806040838503121561169057600080fd5b61169983611661565b946020939093013593505050565b6000806000606084860312156116bc57600080fd5b6116c584611661565b92506116d360208501611661565b9150604084013590509250925092565b6000602082840312156116f557600080fd5b61118782611661565b8015158114610c1457600080fd5b6000806040838503121561171f57600080fd5b61172883611661565b91506020830135611738816116fe565b809150509250929050565b634e487b7160e01b600052604160045260246000fd5b600067ffffffffffffffff8084111561177457611774611743565b604051601f8501601f19908116603f0116810190828211818310171561179c5761179c611743565b816040528093508581528686860111156117b557600080fd5b858560208301376000602087830101525050509392505050565b600080600080608085870312156117e557600080fd5b6117ee85611661565b93506117fc60208601611661565b925060408501359150606085013567ffffffffffffffff81111561181f57600080fd5b8501601f8101871361183057600080fd5b61183f87823560208401611759565b91505092959194509250565b6000806040838503121561185e57600080fd5b61186783611661565b9150602083013567ffffffffffffffff81111561188357600080fd5b8301601f8101851361189457600080fd5b6118a385823560208401611759565b9150509250929050565b600080604083850312156118c057600080fd5b6118c983611661565b91506118d760208401611661565b90509250929050565b600181811c908216806118f457607f821691505b60208210810361191457634e487b7160e01b600052602260045260246000fd5b50919050565b6020808252602e908201527f4552433732313a2063616c6c6572206973206e6f7420746f6b656e206f776e6560408201526d1c881b9bdc88185c1c1c9bdd995960921b606082015260800190565b60006020828403121561197a57600080fd5b5051919050565b60006020828403121561199357600080fd5b8151611187816116fe565b600083516119b08184602088016115e5565b8351908301906119c48183602088016115e5565b01949350505050565b634e487b7160e01b600052601160045260246000fd5b60008160001904831182151516156119fd576119fd6119cd565b500290565b6001600160a01b038316815260406020820181905260009061097e90830184611609565b818103818111156103ab576103ab6119cd565b808201808211156103ab576103ab6119cd565b60208082526032908201527f4552433732313a207472616e7366657220746f206e6f6e20455243373231526560408201527131b2b4bb32b91034b6b83632b6b2b73a32b960711b606082015260800190565b601f82111561057f57600081815260208120601f850160051c81016020861015611ac55750805b601f850160051c820191505b81811015611ae457828155600101611ad1565b505050505050565b815167ffffffffffffffff811115611b0657611b06611743565b611b1a81611b1484546118e0565b84611a9e565b602080601f831160018114611b4f5760008415611b375750858301515b600019600386901b1c1916600185901b178555611ae4565b600085815260208120601f198616915b82811015611b7e57888601518255948401946001909101908401611b5f565b5085821015611b9c5787850151600019600388901b60f8161c191681555b5050505050600190811b01905550565b6001600160a01b0385811682528416602082015260408101839052608060608201819052600090611bdf90830184611609565b9695505050505050565b600060208284031215611bfb57600080fd5b8151611187816115b2565b600060018201611c1857611c186119cd565b5060010190565b634e487b7160e01b600052601260045260246000fd5b600082611c4457611c44611c1f565b500490565b600082611c5857611c58611c1f565b500690565b634e487b7160e01b600052603260045260246000fdfea26469706673582212203421539830ccfecf77211faf9fab78435703f8cd66948b5271ffd94fb66447f464736f6c63430008100033",
    "linkReferences": {}
  },
  "methodIdentifiers": {
    "approve(address,uint256)": "095ea7b3",
    "approveTokensForContract(uint256)": "89cebfdf",
    "balanceOf(address)": "70a08231",
    "getAllowance()": "973e9b8b",
    "getApproved(uint256)": "081812fc",
    "getContractTokenBalance()": "317d9453",
    "getUserTokenBalance(address)": "f5aec88c",
    "isApprovedForAll(address,address)": "e985e9c5",
    "mint(address,string)": "d0def521",
    "name()": "06fdde03",
    "owner()": "8da5cb5b",
    "ownerOf(uint256)": "6352211e",
    "owner_addr()": "d43af51c",
    "renounceOwnership()": "715018a6",
    "s_NFTToken()": "52356f93",
    "safeTransferFrom(address,address,uint256)": "42842e0e",
    "safeTransferFrom(address,address,uint256,bytes)": "b88d4fde",
    "setApprovalForAll(address,bool)": "a22cb465",
    "supportsInterface(bytes4)": "01ffc9a7",
    "symbol()": "95d89b41",
    "tokenURI(uint256)": "c87b56dd",
    "transferFrom(address,address,uint256)": "23b872dd",
    "transferOwnership(address)": "f2fde38b",
    "transferTokensToUser(address,uint256)": "e42d0aac"
  },
  "id": 20
}