{
  "abi": [
    {
      "inputs": [
        {
          "internalType": "address",
          "name": "_tokenAddress",
          "type": "address"
        },
        {
          "internalType": "string",
          "name": "_tokenName",
          "type": "string"
        },
        {
          "internalType": "string",
          "name": "_tokenSymbol",
          "type": "string"
        }
      ],
      "stateMutability": "nonpayable",
      "type": "constructor"
    },
    {
      "inputs": [],
      "name": "NFTApp__LowTokenUser",
      "type": "error"
    },
    {
      "inputs": [],
      "name": "NFTApp__TokenApprovalToNFTContractFailed",
      "type": "error"
    },
    {
      "inputs": [],
      "name": "NFTApp__TokenTransferToNFTContractFailed",
      "type": "error"
    },
    {
      "inputs": [],
      "name": "NFTApp__TokenTransferToUserFailed",
      "type": "error"
    },
    {
      "anonymous": false,
      "inputs": [
        {
          "indexed": true,
          "internalType": "address",
          "name": "owner",
          "type": "address"
        },
        {
          "indexed": true,
          "internalType": "address",
          "name": "approved",
          "type": "address"
        },
        {
          "indexed": true,
          "internalType": "uint256",
          "name": "tokenId",
          "type": "uint256"
        }
      ],
      "name": "Approval",
      "type": "event"
    },
    {
      "anonymous": false,
      "inputs": [
        {
          "indexed": true,
          "internalType": "address",
          "name": "owner",
          "type": "address"
        },
        {
          "indexed": true,
          "internalType": "address",
          "name": "operator",
          "type": "address"
        },
        {
          "indexed": false,
          "internalType": "bool",
          "name": "approved",
          "type": "bool"
        }
      ],
      "name": "ApprovalForAll",
      "type": "event"
    },
    {
      "anonymous": false,
      "inputs": [
        {
          "indexed": false,
          "internalType": "address",
          "name": "",
          "type": "address"
        },
        {
          "indexed": false,
          "internalType": "string",
          "name": "",
          "type": "string"
        }
      ],
      "name": "NFTApp__NFTMintToUserSuccess",
      "type": "event"
    },
    {
      "anonymous": false,
      "inputs": [
        {
          "indexed": true,
          "internalType": "address",
          "name": "previousOwner",
          "type": "address"
        },
        {
          "indexed": true,
          "internalType": "address",
          "name": "newOwner",
          "type": "address"
        }
      ],
      "name": "OwnershipTransferred",
      "type": "event"
    },
    {
      "anonymous": false,
      "inputs": [
        {
          "indexed": true,
          "internalType": "address",
          "name": "from",
          "type": "address"
        },
        {
          "indexed": true,
          "internalType": "address",
          "name": "to",
          "type": "address"
        },
        {
          "indexed": true,
          "internalType": "uint256",
          "name": "tokenId",
          "type": "uint256"
        }
      ],
      "name": "Transfer",
      "type": "event"
    },
    {
      "inputs": [
        {
          "internalType": "address",
          "name": "to",
          "type": "address"
        },
        {
          "internalType": "uint256",
          "name": "tokenId",
          "type": "uint256"
        }
      ],
      "name": "approve",
      "outputs": [],
      "stateMutability": "nonpayable",
      "type": "function"
    },
    {
      "inputs": [
        {
          "internalType": "uint256",
          "name": "_tokenamount",
          "type": "uint256"
        }
      ],
      "name": "approveTokensForContract",
      "outputs": [
        {
          "internalType": "bool",
          "name": "",
          "type": "bool"
        }
      ],
      "stateMutability": "nonpayable",
      "type": "function"
    },
    {
      "inputs": [
        {
          "internalType": "address",
          "name": "owner",
          "type": "address"
        }
      ],
      "name": "balanceOf",
      "outputs": [
        {
          "internalType": "uint256",
          "name": "",
          "type": "uint256"
        }
      ],
      "stateMutability": "view",
      "type": "function"
    },
    {
      "inputs": [],
      "name": "getAllowance",
      "outputs": [
        {
          "internalType": "uint256",
          "name": "",
          "type": "uint256"
        }
      ],
      "stateMutability": "view",
      "type": "function"
    },
    {
      "inputs": [
        {
          "internalType": "uint256",
          "name": "tokenId",
          "type": "uint256"
        }
      ],
      "name": "getApproved",
      "outputs": [
        {
          "internalType": "address",
          "name": "",
          "type": "address"
        }
      ],
      "stateMutability": "view",
      "type": "function"
    },
    {
      "inputs": [],
      "name": "getContractTokenBalance",
      "outputs": [
        {
          "internalType": "uint256",
          "name": "",
          "type": "uint256"
        }
      ],
      "stateMutability": "view",
      "type": "function"
    },
    {
      "inputs": [],
      "name": "getPerTokenValue",
      "outputs": [
        {
          "internalType": "uint256",
          "name": "",
          "type": "uint256"
        }
      ],
      "stateMutability": "pure",
      "type": "function"
    },
    {
      "inputs": [
        {
          "internalType": "address",
          "name": "user_addr",
          "type": "address"
        }
      ],
      "name": "getUserTokenBalance",
      "outputs": [
        {
          "internalType": "uint256",
          "name": "",
          "type": "uint256"
        }
      ],
      "stateMutability": "view",
      "type": "function"
    },
    {
      "inputs": [
        {
          "internalType": "address",
          "name": "owner",
          "type": "address"
        },
        {
          "internalType": "address",
          "name": "operator",
          "type": "address"
        }
      ],
      "name": "isApprovedForAll",
      "outputs": [
        {
          "internalType": "bool",
          "name": "",
          "type": "bool"
        }
      ],
      "stateMutability": "view",
      "type": "function"
    },
    {
      "inputs": [
        {
          "internalType": "address",
          "name": "to",
          "type": "address"
        },
        {
          "internalType": "string",
          "name": "art_uri",
          "type": "string"
        }
      ],
      "name": "mint",
      "outputs": [],
      "stateMutability": "nonpayable",
      "type": "function"
    },
    {
      "inputs": [],
      "name": "name",
      "outputs": [
        {
          "internalType": "string",
          "name": "",
          "type": "string"
        }
      ],
      "stateMutability": "view",
      "type": "function"
    },
    {
      "inputs": [],
      "name": "owner",
      "outputs": [
        {
          "internalType": "address",
          "name": "",
          "type": "address"
        }
      ],
      "stateMutability": "view",
      "type": "function"
    },
    {
      "inputs": [
        {
          "internalType": "uint256",
          "name": "tokenId",
          "type": "uint256"
        }
      ],
      "name": "ownerOf",
      "outputs": [
        {
          "internalType": "address",
          "name": "",
          "type": "address"
        }
      ],
      "stateMutability": "view",
      "type": "function"
    },
    {
      "inputs": [],
      "name": "renounceOwnership",
      "outputs": [],
      "stateMutability": "nonpayable",
      "type": "function"
    },
    {
      "inputs": [
        {
          "internalType": "address",
          "name": "from",
          "type": "address"
        },
        {
          "internalType": "address",
          "name": "to",
          "type": "address"
        },
        {
          "internalType": "uint256",
          "name": "tokenId",
          "type": "uint256"
        }
      ],
      "name": "safeTransferFrom",
      "outputs": [],
      "stateMutability": "nonpayable",
      "type": "function"
    },
    {
      "inputs": [
        {
          "internalType": "address",
          "name": "from",
          "type": "address"
        },
        {
          "internalType": "address",
          "name": "to",
          "type": "address"
        },
        {
          "internalType": "uint256",
          "name": "tokenId",
          "type": "uint256"
        },
        {
          "internalType": "bytes",
          "name": "data",
          "type": "bytes"
        }
      ],
      "name": "safeTransferFrom",
      "outputs": [],
      "stateMutability": "nonpayable",
      "type": "function"
    },
    {
      "inputs": [
        {
          "internalType": "address",
          "name": "operator",
          "type": "address"
        },
        {
          "internalType": "bool",
          "name": "approved",
          "type": "bool"
        }
      ],
      "name": "setApprovalForAll",
      "outputs": [],
      "stateMutability": "nonpayable",
      "type": "function"
    },
    {
      "inputs": [
        {
          "internalType": "bytes4",
          "name": "interfaceId",
          "type": "bytes4"
        }
      ],
      "name": "supportsInterface",
      "outputs": [
        {
          "internalType": "bool",
          "name": "",
          "type": "bool"
        }
      ],
      "stateMutability": "view",
      "type": "function"
    },
    {
      "inputs": [],
      "name": "symbol",
      "outputs": [
        {
          "internalType": "string",
          "name": "",
          "type": "string"
        }
      ],
      "stateMutability": "view",
      "type": "function"
    },
    {
      "inputs": [
        {
          "internalType": "uint256",
          "name": "tokenId",
          "type": "uint256"
        }
      ],
      "name": "tokenURI",
      "outputs": [
        {
          "internalType": "string",
          "name": "",
          "type": "string"
        }
      ],
      "stateMutability": "view",
      "type": "function"
    },
    {
      "inputs": [
        {
          "internalType": "address",
          "name": "from",
          "type": "address"
        },
        {
          "internalType": "address",
          "name": "to",
          "type": "address"
        },
        {
          "internalType": "uint256",
          "name": "tokenId",
          "type": "uint256"
        }
      ],
      "name": "transferFrom",
      "outputs": [],
      "stateMutability": "nonpayable",
      "type": "function"
    },
    {
      "inputs": [
        {
          "internalType": "address",
          "name": "newOwner",
          "type": "address"
        }
      ],
      "name": "transferOwnership",
      "outputs": [],
      "stateMutability": "nonpayable",
      "type": "function"
    },
    {
      "inputs": [
        {
          "internalType": "address",
          "name": "user_addr",
          "type": "address"
        },
        {
          "internalType": "uint256",
          "name": "_amount",
          "type": "uint256"
        }
      ],
      "name": "transferTokensToUser",
      "outputs": [
        {
          "internalType": "bool",
          "name": "",
          "type": "bool"
        }
      ],
      "stateMutability": "nonpayable",
      "type": "function"
    }
  ],
  "bytecode": {
    "object": "0x60806040523480156200001157600080fd5b506040516200203a3803806200203a8339810160408190526200003491620001c6565b81816000620000448382620002df565b506001620000538282620002df565b505050620000706200006a620000ab60201b60201c565b620000af565b50506001600855600a8054336001600160a01b031991821617909155600980549091166001600160a01b0392909216919091179055620003ab565b3390565b600780546001600160a01b038381166001600160a01b0319831681179093556040519116919082907f8be0079c531659141344cd1fd0a4f28419497f9722a3daafe3b4186f6b6457e090600090a35050565b634e487b7160e01b600052604160045260246000fd5b600082601f8301126200012957600080fd5b81516001600160401b038082111562000146576200014662000101565b604051601f8301601f19908116603f0116810190828211818310171562000171576200017162000101565b816040528381526020925086838588010111156200018e57600080fd5b600091505b83821015620001b2578582018301518183018401529082019062000193565b600093810190920192909252949350505050565b600080600060608486031215620001dc57600080fd5b83516001600160a01b0381168114620001f457600080fd5b60208501519093506001600160401b03808211156200021257600080fd5b620002208783880162000117565b935060408601519150808211156200023757600080fd5b50620002468682870162000117565b9150509250925092565b600181811c908216806200026557607f821691505b6020821081036200028657634e487b7160e01b600052602260045260246000fd5b50919050565b601f821115620002da57600081815260208120601f850160051c81016020861015620002b55750805b601f850160051c820191505b81811015620002d657828155600101620002c1565b5050505b505050565b81516001600160401b03811115620002fb57620002fb62000101565b62000313816200030c845462000250565b846200028c565b602080601f8311600181146200034b5760008415620003325750858301515b600019600386901b1c1916600185901b178555620002d6565b600085815260208120601f198616915b828110156200037c578886015182559484019460019091019084016200035b565b50858210156200039b5787850151600019600388901b60f8161c191681555b5050505050600190811b01905550565b611c7f80620003bb6000396000f3fe608060405234801561001057600080fd5b506004361061014d5760003560e01c806389cebfdf116100c3578063c87b56dd1161007c578063c87b56dd1461029a578063d0def521146102ad578063e42d0aac146102c0578063e985e9c5146102d3578063f2fde38b1461030f578063f5aec88c1461032257600080fd5b806389cebfdf146102405780638da5cb5b1461025357806395d89b4114610264578063973e9b8b1461026c578063a22cb46514610274578063b88d4fde1461028757600080fd5b8063317d945311610115578063317d9453146101e257806338a958bc146101f857806342842e0e146101ff5780636352211e1461021257806370a0823114610225578063715018a61461023857600080fd5b806301ffc9a71461015257806306fdde031461017a578063081812fc1461018f578063095ea7b3146101ba57806323b872dd146101cf575b600080fd5b61016561016036600461159e565b610335565b60405190151581526020015b60405180910390f35b610182610387565b604051610171919061160b565b6101a261019d36600461161e565b610419565b6040516001600160a01b039091168152602001610171565b6101cd6101c8366004611653565b610440565b005b6101cd6101dd36600461167d565b61055a565b6101ea61058b565b604051908152602001610171565b60646101ea565b6101cd61020d36600461167d565b610607565b6101a261022036600461161e565b610622565b6101ea6102333660046116b9565b610682565b6101cd610708565b61016561024e36600461161e565b61071c565b6007546001600160a01b03166101a2565b6101826107bf565b6101ea6107ce565b6101cd6102823660046116e2565b610805565b6101cd6102953660046117a5565b610814565b6101826102a836600461161e565b61084c565b6101cd6102bb366004611821565b61095c565b6101656102ce366004611653565b610ac5565b6101656102e1366004611883565b6001600160a01b03918216600090815260056020908152604080832093909416825291909152205460ff1690565b6101cd61031d3660046116b9565b610b74565b6101ea6103303660046116b9565b610bed565b60006001600160e01b031982166380ac58cd60e01b148061036657506001600160e01b03198216635b5e139f60e01b145b8061038157506301ffc9a760e01b6001600160e01b03198316145b92915050565b606060008054610396906118b6565b80601f01602080910402602001604051908101604052809291908181526020018280546103c2906118b6565b801561040f5780601f106103e45761010080835404028352916020019161040f565b820191906000526020600020905b8154815290600101906020018083116103f257829003601f168201915b5050505050905090565b600061042482610c5c565b506000908152600460205260409020546001600160a01b031690565b600061044b82610622565b9050806001600160a01b0316836001600160a01b0316036104bd5760405162461bcd60e51b815260206004820152602160248201527f4552433732313a20617070726f76616c20746f2063757272656e74206f776e656044820152603960f91b60648201526084015b60405180910390fd5b336001600160a01b03821614806104d957506104d981336102e1565b61054b5760405162461bcd60e51b815260206004820152603e60248201527f4552433732313a20617070726f76652063616c6c6572206973206e6f7420746f60448201527f6b656e206f776e6572206e6f7220617070726f76656420666f7220616c6c000060648201526084016104b4565b6105558383610cbb565b505050565b6105643382610d29565b6105805760405162461bcd60e51b81526004016104b4906118f0565b610555838383610da7565b6000610595610f43565b6009546040516370a0823160e01b81523060048201526001600160a01b03909116906370a08231906024015b602060405180830381865afa1580156105de573d6000803e3d6000fd5b505050506040513d601f19601f82011682018060405250810190610602919061193e565b905090565b61055583838360405180602001604052806000815250610814565b6000818152600260205260408120546001600160a01b0316806103815760405162461bcd60e51b8152602060048201526018602482015277115490cdcc8c4e881a5b9d985b1a59081d1bdad95b88125160421b60448201526064016104b4565b60006001600160a01b0382166106ec5760405162461bcd60e51b815260206004820152602960248201527f4552433732313a2061646472657373207a65726f206973206e6f7420612076616044820152683634b21037bbb732b960b91b60648201526084016104b4565b506001600160a01b031660009081526003602052604090205490565b610710610f43565b61071a6000610f9d565b565b60095460405163095ea7b360e01b81523060048201526024810183905260009182916001600160a01b039091169063095ea7b3906044016020604051808303816000875af1158015610772573d6000803e3d6000fd5b505050506040513d601f19601f820116820180604052508101906107969190611957565b9050806107b65760405163a3c84a3960e01b815260040160405180910390fd5b50600192915050565b606060018054610396906118b6565b600954604051636eb1769f60e11b81523360048201523060248201526000916001600160a01b03169063dd62ed3e906044016105c1565b610810338383610fef565b5050565b61081e3383610d29565b61083a5760405162461bcd60e51b81526004016104b4906118f0565b610846848484846110bd565b50505050565b606061085782610c5c565b60008281526006602052604081208054610870906118b6565b80601f016020809104026020016040519081016040528092919081815260200182805461089c906118b6565b80156108e95780601f106108be576101008083540402835291602001916108e9565b820191906000526020600020905b8154815290600101906020018083116108cc57829003601f168201915b50505050509050600061090760408051602081019091526000815290565b90508051600003610919575092915050565b81511561094b578082604051602001610933929190611974565b60405160208183030381529060405292505050919050565b610954846110f0565b949350505050565b6000610967600b5490565b9050610977600b80546001019055565b61098a6064670de0b6b3a76400006119b9565b6109926107ce565b10156109b157604051633bac2c8d60e11b815260040160405180910390fd5b6009546000906001600160a01b03166323b872dd33306109da6064670de0b6b3a76400006119b9565b6040516001600160e01b031960e086901b1681526001600160a01b03938416600482015292909116602483015260448201526064016020604051808303816000875af1158015610a2e573d6000803e3d6000fd5b505050506040513d601f19601f82011682018060405250810190610a529190611957565b905080610a7257604051634057de4760e11b815260040160405180910390fd5b610a7c8483611164565b610a86828461117e565b7f9d6a988830d89ded41aaa4153d70d1ac3555c2e487357cced2b84a887b173b548484604051610ab79291906119d8565b60405180910390a150505050565b600954600a546040516323b872dd60e01b81526001600160a01b039182166004820152848216602482015260448101849052600092839216906323b872dd906064016020604051808303816000875af1158015610b26573d6000803e3d6000fd5b505050506040513d601f19601f82011682018060405250810190610b4a9190611957565b905080610b6a57604051633513366360e21b815260040160405180910390fd5b5060019392505050565b610b7c610f43565b6001600160a01b038116610be15760405162461bcd60e51b815260206004820152602660248201527f4f776e61626c653a206e6577206f776e657220697320746865207a65726f206160448201526564647265737360d01b60648201526084016104b4565b610bea81610f9d565b50565b6009546040516370a0823160e01b81526001600160a01b03838116600483015260009216906370a0823190602401602060405180830381865afa158015610c38573d6000803e3d6000fd5b505050506040513d601f19601f82011682018060405250810190610381919061193e565b6000818152600260205260409020546001600160a01b0316610bea5760405162461bcd60e51b8152602060048201526018602482015277115490cdcc8c4e881a5b9d985b1a59081d1bdad95b88125160421b60448201526064016104b4565b600081815260046020526040902080546001600160a01b0319166001600160a01b0384169081179091558190610cf082610622565b6001600160a01b03167f8c5be1e5ebec7d5bd14f71427d1e84f3dd0314c0f7b2291e5b200ac8c7c3b92560405160405180910390a45050565b600080610d3583610622565b9050806001600160a01b0316846001600160a01b03161480610d7c57506001600160a01b0380821660009081526005602090815260408083209388168352929052205460ff165b806109545750836001600160a01b0316610d9584610419565b6001600160a01b031614949350505050565b826001600160a01b0316610dba82610622565b6001600160a01b031614610e1e5760405162461bcd60e51b815260206004820152602560248201527f4552433732313a207472616e736665722066726f6d20696e636f72726563742060448201526437bbb732b960d91b60648201526084016104b4565b6001600160a01b038216610e805760405162461bcd60e51b8152602060048201526024808201527f4552433732313a207472616e7366657220746f20746865207a65726f206164646044820152637265737360e01b60648201526084016104b4565b610e8b600082610cbb565b6001600160a01b0383166000908152600360205260408120805460019290610eb49084906119fc565b90915550506001600160a01b0382166000908152600360205260408120805460019290610ee2908490611a0f565b909155505060008181526002602052604080822080546001600160a01b0319166001600160a01b0386811691821790925591518493918716917fddf252ad1be2c89b69c2b068fc378daa952ba7f163c4a11628f55a4df523b3ef91a4505050565b6007546001600160a01b0316331461071a5760405162461bcd60e51b815260206004820181905260248201527f4f776e61626c653a2063616c6c6572206973206e6f7420746865206f776e657260448201526064016104b4565b600780546001600160a01b038381166001600160a01b0319831681179093556040519116919082907f8be0079c531659141344cd1fd0a4f28419497f9722a3daafe3b4186f6b6457e090600090a35050565b816001600160a01b0316836001600160a01b0316036110505760405162461bcd60e51b815260206004820152601960248201527f4552433732313a20617070726f766520746f2063616c6c65720000000000000060448201526064016104b4565b6001600160a01b03838116600081815260056020908152604080832094871680845294825291829020805460ff191686151590811790915591519182527f17307eab39ab6107e8899845ad3d59bd9653f200f220920489ca2b5937696c31910160405180910390a3505050565b6110c8848484610da7565b6110d484848484611211565b6108465760405162461bcd60e51b81526004016104b490611a22565b60606110fb82610c5c565b600061111260408051602081019091526000815290565b90506000815111611132576040518060200160405280600081525061115d565b8061113c84611312565b60405160200161114d929190611974565b6040516020818303038152906040525b9392505050565b610810828260405180602001604052806000815250611413565b6000828152600260205260409020546001600160a01b03166111f95760405162461bcd60e51b815260206004820152602e60248201527f45524337323155524953746f726167653a2055524920736574206f66206e6f6e60448201526d32bc34b9ba32b73a103a37b5b2b760911b60648201526084016104b4565b60008281526006602052604090206105558282611ac2565b60006001600160a01b0384163b1561130757604051630a85bd0160e11b81526001600160a01b0385169063150b7a0290611255903390899088908890600401611b82565b6020604051808303816000875af1925050508015611290575060408051601f3d908101601f1916820190925261128d91810190611bbf565b60015b6112ed573d8080156112be576040519150601f19603f3d011682016040523d82523d6000602084013e6112c3565b606091505b5080516000036112e55760405162461bcd60e51b81526004016104b490611a22565b805181602001fd5b6001600160e01b031916630a85bd0160e11b149050610954565b506001949350505050565b6060816000036113395750506040805180820190915260018152600360fc1b602082015290565b8160005b8115611363578061134d81611bdc565b915061135c9050600a83611c0b565b915061133d565b60008167ffffffffffffffff81111561137e5761137e611719565b6040519080825280601f01601f1916602001820160405280156113a8576020820181803683370190505b5090505b8415610954576113bd6001836119fc565b91506113ca600a86611c1f565b6113d5906030611a0f565b60f81b8183815181106113ea576113ea611c33565b60200101906001600160f81b031916908160001a90535061140c600a86611c0b565b94506113ac565b61141d8383611446565b61142a6000848484611211565b6105555760405162461bcd60e51b81526004016104b490611a22565b6001600160a01b03821661149c5760405162461bcd60e51b815260206004820181905260248201527f4552433732313a206d696e7420746f20746865207a65726f206164647265737360448201526064016104b4565b6000818152600260205260409020546001600160a01b0316156115015760405162461bcd60e51b815260206004820152601c60248201527f4552433732313a20746f6b656e20616c7265616479206d696e7465640000000060448201526064016104b4565b6001600160a01b038216600090815260036020526040812080546001929061152a908490611a0f565b909155505060008181526002602052604080822080546001600160a01b0319166001600160a01b03861690811790915590518392907fddf252ad1be2c89b69c2b068fc378daa952ba7f163c4a11628f55a4df523b3ef908290a45050565b6001600160e01b031981168114610bea57600080fd5b6000602082840312156115b057600080fd5b813561115d81611588565b60005b838110156115d65781810151838201526020016115be565b50506000910152565b600081518084526115f78160208601602086016115bb565b601f01601f19169290920160200192915050565b60208152600061115d60208301846115df565b60006020828403121561163057600080fd5b5035919050565b80356001600160a01b038116811461164e57600080fd5b919050565b6000806040838503121561166657600080fd5b61166f83611637565b946020939093013593505050565b60008060006060848603121561169257600080fd5b61169b84611637565b92506116a960208501611637565b9150604084013590509250925092565b6000602082840312156116cb57600080fd5b61115d82611637565b8015158114610bea57600080fd5b600080604083850312156116f557600080fd5b6116fe83611637565b9150602083013561170e816116d4565b809150509250929050565b634e487b7160e01b600052604160045260246000fd5b600067ffffffffffffffff8084111561174a5761174a611719565b604051601f8501601f19908116603f0116810190828211818310171561177257611772611719565b8160405280935085815286868601111561178b57600080fd5b858560208301376000602087830101525050509392505050565b600080600080608085870312156117bb57600080fd5b6117c485611637565b93506117d260208601611637565b925060408501359150606085013567ffffffffffffffff8111156117f557600080fd5b8501601f8101871361180657600080fd5b6118158782356020840161172f565b91505092959194509250565b6000806040838503121561183457600080fd5b61183d83611637565b9150602083013567ffffffffffffffff81111561185957600080fd5b8301601f8101851361186a57600080fd5b6118798582356020840161172f565b9150509250929050565b6000806040838503121561189657600080fd5b61189f83611637565b91506118ad60208401611637565b90509250929050565b600181811c908216806118ca57607f821691505b6020821081036118ea57634e487b7160e01b600052602260045260246000fd5b50919050565b6020808252602e908201527f4552433732313a2063616c6c6572206973206e6f7420746f6b656e206f776e6560408201526d1c881b9bdc88185c1c1c9bdd995960921b606082015260800190565b60006020828403121561195057600080fd5b5051919050565b60006020828403121561196957600080fd5b815161115d816116d4565b600083516119868184602088016115bb565b83519083019061199a8183602088016115bb565b01949350505050565b634e487b7160e01b600052601160045260246000fd5b60008160001904831182151516156119d3576119d36119a3565b500290565b6001600160a01b0383168152604060208201819052600090610954908301846115df565b81810381811115610381576103816119a3565b80820180821115610381576103816119a3565b60208082526032908201527f4552433732313a207472616e7366657220746f206e6f6e20455243373231526560408201527131b2b4bb32b91034b6b83632b6b2b73a32b960711b606082015260800190565b601f82111561055557600081815260208120601f850160051c81016020861015611a9b5750805b601f850160051c820191505b81811015611aba57828155600101611aa7565b505050505050565b815167ffffffffffffffff811115611adc57611adc611719565b611af081611aea84546118b6565b84611a74565b602080601f831160018114611b255760008415611b0d5750858301515b600019600386901b1c1916600185901b178555611aba565b600085815260208120601f198616915b82811015611b5457888601518255948401946001909101908401611b35565b5085821015611b725787850151600019600388901b60f8161c191681555b5050505050600190811b01905550565b6001600160a01b0385811682528416602082015260408101839052608060608201819052600090611bb5908301846115df565b9695505050505050565b600060208284031215611bd157600080fd5b815161115d81611588565b600060018201611bee57611bee6119a3565b5060010190565b634e487b7160e01b600052601260045260246000fd5b600082611c1a57611c1a611bf5565b500490565b600082611c2e57611c2e611bf5565b500690565b634e487b7160e01b600052603260045260246000fdfea26469706673582212202a699c33a0ba4e540db59dbe68d872f3f5c3dda39608c7c9b0c00cb6f0b8ad7b64736f6c63430008100033",
    "linkReferences": {}
  },
  "methodIdentifiers": {
    "approve(address,uint256)": "095ea7b3",
    "approveTokensForContract(uint256)": "89cebfdf",
    "balanceOf(address)": "70a08231",
    "getAllowance()": "973e9b8b",
    "getApproved(uint256)": "081812fc",
    "getContractTokenBalance()": "317d9453",
    "getPerTokenValue()": "38a958bc",
    "getUserTokenBalance(address)": "f5aec88c",
    "isApprovedForAll(address,address)": "e985e9c5",
    "mint(address,string)": "d0def521",
    "name()": "06fdde03",
    "owner()": "8da5cb5b",
    "ownerOf(uint256)": "6352211e",
    "renounceOwnership()": "715018a6",
    "safeTransferFrom(address,address,uint256)": "42842e0e",
    "safeTransferFrom(address,address,uint256,bytes)": "b88d4fde",
    "setApprovalForAll(address,bool)": "a22cb465",
    "supportsInterface(bytes4)": "01ffc9a7",
    "symbol()": "95d89b41",
    "tokenURI(uint256)": "c87b56dd",
    "transferFrom(address,address,uint256)": "23b872dd",
    "transferOwnership(address)": "f2fde38b",
    "transferTokensToUser(address,uint256)": "e42d0aac"
  },
  "id": 20
}